{
    "hash": "72e7fd57c2adb1ed2305c4247486ff79aec363296f02ec65be141904f80d214e",
    "hex": "0200000000010102f88529b2209c66ddc676cbbb4f60469d6bff231021adac57a0ccf8e0e9ffc60100000000fdffffff0265000000000000001600144b47c798d12edd17dfb4ea98e5447926f664731ca523000000000000160014f1f22fbcff25f9d10922a155082f33de50d9c3cd0247304402205b284e74ffd399c1cf5446082a68025a6bf9a3e49e94177de44e6d8b4cd6d6a602205eea19d0302e41b8bbac9427e30e88e23875bd47be65572da374df7fbdd479220121032f5cc5c735e61a51119a907a0cbece5077c7e1362e322ceb9fbf75ffb9adb5283df21700",
    "version": "02000000",
    "txInVector": "0102f88529b2209c66ddc676cbbb4f60469d6bff231021adac57a0ccf8e0e9ffc60100000000fdffffff",
    "txOutVector": "0265000000000000001600144b47c798d12edd17dfb4ea98e5447926f664731ca523000000000000160014f1f22fbcff25f9d10922a155082f33de50d9c3cd",
    "locktime": "3df21700",
    "fundingOutputIndex": 0,
    "outputs": [
        {
            "value": 101,
            "script": "00144b47c798d12edd17dfb4ea98e5447926f664731c"
        },
        {
            "value": 9125,
            "script": "0014f1f22fbcff25f9d10922a155082f33de50d9c3cd"
        }
    ],
    "blockHeight": 1569342,
    "merkleProof": "4e210df8041914be65ec026f2963c3ae79ff867424c40523edb1adc257fde77252846fd232df9ac2952dbdff1981c904abeae46ff4d4fa70bf2767df5bbb5b8bb9984f0773ca4efc53aba90ef129dac6161b1d86360822a8e46579b0ac7b6353bcdfe49c319a2c576f477fc49a38c6a4c2e942297e2105eb4c098d1038e76702b4744892e0ddd033729ec659613232546d2db8522bca7896d9480cc5ee0de03413a9d78eed747819794321140354f05879f1010951aedb0c62a3866c5e43537a5b7fd1e8290632d71b53e9a18cb3e80570145a5cc3d46ca1ea0c35ceb7db15632f5d72f7ea5eed3a46ce0543102ffffddcf92a951e870862640602dcda0c384037700982aea6e09db84bbd503634409a31830546656841f2cfd11fa7e6ba745df933d20827a26696c8fb73debac281ffb65fd18e7c11ad9a00e059c6cfdc6d29583b7a45472123fac1003384cc60fce2129c8d7364969dfa35021ab26c0b0449",
    "indexInBlock": 177,
    "chainHeaders": "00000020a114bf2d1e930390044cc4e00dd2f490a36dcecb4b6bb702b502000000000000583b7a45472123fac1003384cc60fce2129c8d7364969dfa35021ab26c0b0449bccc2e5dffff001d061013a10000ff3f3210404a744c3170cdd6ad7fc901194c913004faa87f291cd3faac2b00000000ecc1620341eeee4881423cab631e6e4a0b003c05ffc2dfc132a2a902a45df2c573d02e5d148c031af7358d5f00e0ff3fd83c1e679a4766043e3dbc622870e64ba4c2cacfa2f45563210100000000000071d244c45daecf0abf15c5f4e47f12310912918ca56b89c3dfb68103371ae6bf98d42e5d148c031aca5d525e00000020d2a6ad5304a5bbe4948666fd6775dc2cde9c0cef7060a471fe01000000000000597701d1165c140f471f2684f1f6b3e97765ee5492619582af5e6d192895e7d34cd92e5dffff001dbb34c42400000020b9b3fcbb515c899b10bf3889d432ca2782cfad01f9c2cf329fb60e000000000048d580fbe9ccf1cadaffe0e780eab57ea401f6260f38bd459d32cc3eef6cbd33ffd92e5d148c031a3c4277f40000002024af4d64067c20a1ed5cb9fbd432a98fe659e3653378e6b9ed00000000000000fea85a41c80b307f9cdfd22ac52521ba89ea6467769206d89889663cb7742e7358db2e5d148c031a7d30031a0000ff3f6418122efc0ddf2416189b01c0d98ab7e5072fe1e99c3e275401000000000000496c06f87b8d442db7c6bd36ff05e3a7a0edb3e0124d26c61d44c584ba1f8ff86bdc2e5d148c031a411e00ae",
    "chainHeadersNumber": 6
}
